:100000000C94F8000C9420010C9420010C94200115
:100010000C9420010C9420010C9420010C942001DC
:100020000C9420010C9420010C9420010C942001CC
:100030000C9420010C9420010C9420010C942001BC
:100040000C9410290C9420010C9480290C945A29AA
:100050000C9420010C9420010C9420010C9420019C
:100060000C9420010C94200100407A10F35A00A057
:10007000724E18090010A5D4E80000E87648170071
:1000800000E40B54020000CA9A3B000000E1F505B1
:10009000000080969800000040420F000000A086FB
:1000A00001000000102700000000E803000000002D
:1000B0006400000000000A000000000001000000D1
:1000C00000002C76D888DC674F0823DFC1DFAE59EB
:1000D000E1B1B796E5E3E453C63AE651997696E87E
:1000E000E6C28426EB898C9B62ED407C6FFCEFBC02
:1000F0009C9F40F2BAA56FA5F490055A2AF75C932D
:100100006B6CF9676DC11BFCE0E40D47FEF520E662
:10011000B500D0ED902E0300943577050080841E45
:10012000080000204E0A000000C80C333333330FA0
:10013000986E12831141EF8D2114893BE65516CF3D
:10014000FEE6DB18D1844B381BF77C1D901DA4BB49
:10015000E424203284725E228100C9F124ECA1E5FE
:100160003D27CDCCCC3D0AD7233C17B7D13877CC2F
:100170002B329595E6241FB14F0A00002041000064
:10018000C84200401C4620BCBE4CCA1B0E5AAEC51D
:100190009D74496E69007472756500000000080066
:1001A000020100000304070000000000000000003E
:1001B000000000250028002B00000000002400277C
:1001C000002A0004040404040404040202020202DB
:1001D000020303030303030102040810204080010B
:1001E000020408102001020408102000A22A582E40
:1001F00011241FBECFEFD8E0DEBFCDBF12E0A0E0DC
:10020000B1E0ECE8F1E702C005900D92A43AB10725
:10021000D9F724E0A4EAB2E001C01D92A938B207E0
:10022000E1F710E0C7EFD0E004C02197FE010E9483
:10023000E733C63FD107C9F70E94C02B0C94B938E9
:100240000C94000090E0FC01E952FE4F24918D5384
:100250009E4FFC018491882399F090E0880F991FAC
:10026000FC01E754FE4FA591B491FC01E155FE4F0E
:10027000859194918FB7F894EC91E22BEC938FBF1A
:100280000895CF93DF93EC0188819981DC01ED9192
:10029000FC910190F081E02D64E270E009950097F7
:1002A00041F02FE1FC01238321E02283DF91CF91F4
:1002B000089521E02A83FACF90E0FC01E556FE4F35
:1002C0002491FC01E952FE4F3491FC01ED53FE4FA5
:1002D000E491EE23C9F0222339F0233001F1A8F490
:1002E000213019F1223029F1F0E0EE0FFF1FE15526
:1002F000FE4FA591B4918FB7F894EC91611126C08F
:1003000030953E233C938FBF08952730A9F02830C5
:10031000C9F0243049F7809180008F7D03C080911F
:1003200080008F7780938000DFCF84B58F7784BD86
:10033000DBCF84B58F7DFBCF8091B0008F7780932A
:10034000B000D2CF8091B0008F7DF9CF3E2BDACFB5
:100350003FB7F89480910F0390911003A09111037F
:10036000B091120326B5A89B05C02F3F19F0019646
:10037000A11DB11D3FBFBA2FA92F982F8827BC01FF
:10038000CD01620F711D811D911D42E0660F771F27
:10039000881F991F4A95D1F708958F929F92AF9227
:1003A000BF92CF92DF92EF92FF924B015C010E94CD
:1003B000A8016B017C010E94A8016C197D098E09BE
:1003C0009F09683E734081059105A8F321E0821AD8
:1003D0009108A108B10888EEC80E83E0D81EE11C80
:1003E000F11C81149104A104B10429F7FF90EF904E
:1003F000DF90CF90BF90AF909F908F9008952FB7D0
:10040000F89460910B0370910C0380910D0390910F
:100410000E032FBF0895EF92FF920F931F93CF9378
:10042000DF938C017B01D0E0C0E0F701EC0FFD1FF2
:100430006491662361F0D801ED91FC910190F08107
:10044000E02DC8010995892B11F02196EECFCE0140
:10045000DF91CF911F910F91FF90EF900895AF9290
:10046000BF92CF92DF92EF92FF920F931F93CF93A1
:10047000DF936C017B018B01040F151FEB015E0103
:10048000AE18BF08C017D10759F06991D601ED9198
:10049000FC910190F081E02DC6010995892B79F737
:1004A000C501DF91CF911F910F91FF90EF90DF90E9
:1004B000CF90BF90AF900895FC01538D448D252FB0
:1004C00030E0842F90E0821B930B541710F0CF96EE
:1004D000089501970895FC01918D828D981761F020
:1004E000A28DAE0FBF2FB11D5D968C91928D9F5F37
:1004F0009F73928F90E008958FEF9FEF0895FC0116
:10050000918D828D981731F0828DE80FF11D858DC8
:1005100090E008958FEF9FEF0895FC01918D228D5B
:10052000892F90E0805C9F4F821B91098F739927E0
:10053000089587E193E00E948D0221E0892B09F460
:1005400020E0822F089580E090E0892B29F00E941E
:10055000990281110C9400000895FC01A48DA80F4C
:10056000B92FB11DA35ABF4F2C91848D90E00196F5
:100570008F739927848FA689B7892C93A089B18915
:100580008C91837080648C93938D848D981306C0B6
:100590000288F389E02D80818F7D80830895EF921A
:1005A000FF920F931F93CF93DF93EC0181E0888F2D
:1005B0009B8D8C8D98131AC0E889F989808185FFFD
:1005C00015C09FB7F894EE89FF896083E889F9899F
:1005D00080818370806480839FBF81E090E0DF91A1
:1005E000CF911F910F91FF90EF900895F62E0B8DF4
:1005F00010E00F5F1F4F0F731127E02E8C8D8E11AF
:100600000CC00FB607FCFACFE889F989808185FF15
:10061000F5CFCE010E94AD02F1CFEB8DEC0FFD2F97
:10062000F11DE35AFF4FF0829FB7F8940B8FEA89D0
:10063000FB8980818062CFCFCF93DF93EC01888DDF
:100640008823B9F0AA89BB89E889F9898C9185FD4D
:1006500003C0808186FD0DC00FB607FCF7CF8C91DB
:1006600085FFF2CF808185FFEDCFCE010E94AD02E4
:10067000E9CFDF91CF910895DC011C968D919C917B
:10068000DC01ED91FC910280F381E02D0994DC0105
:100690001C968D919C91DC01ED91FC910084F1857B
:1006A000E02D0994DC011C968D919C91DC01ED916B
:1006B000FC910688F789E02D0994CF93DF93EC0134
:1006C000CF59DF4F48815981FC01E15AFF4F6081CA
:1006D00071810E943C0321E030E048815981481734
:1006E000590711F030E020E019821882C901DF912A
:1006F000CF91089581E00895CF93DF93EC010E949C
:100700005203882321F08FA5DF91CF91089580E0D7
:10071000FBCF0895DC01D2962D913C91D3972630E2
:10072000310551F41C968D919C91DC01ED91FC9169
:100730000484F585E02D09948FEF9FEF0895CF9302
:10074000DF931F92CDB7DEB7DC01ED91FC910288FB
:10075000F389E02D41E050E0BE016F5F7F4F0995C6
:10076000019731F4898190E00F90DF91CF91089546
:100770008FEF9FEFF9CFFC0122A933A92630310575
:1007800019F486A997A9089590E080E00895CF9381
:10079000DF931F92CDB7DEB76983DC01ED91FC9149
:1007A0000280F381E02D41E050E0BE016F5F7F4F9A
:1007B00009950F90DF91CF91089561E08091160324
:1007C0000C945C0160E0809116030C945C01089528
:1007D0008EBD00000DB407FEFDCF8EB508958CBD13
:1007E0009DBD0895CF93DF93D82FC62F8091BA0374
:1007F0009091BB030E94EF030E94E20380E00E94FD
:10080000E8038D2F0E94E8038C2F0E94E80380E00C
:100810000E94E803C82F0E94DD038C2FDF91CF9147
:100820000895DF92EF92FF920F931F93CF93DF9380
:10083000D82FD92EC62F7A0189018091BA039091C1
:10084000BB030E94EF030E94E2038D2D0E94E80388
:100850008D2F0E94E8038C2F0E94E803E701E00E31
:10086000F11ECE15DF0521F089910E94E803F9CF32
:100870000E94DD03C801DF91CF911F910F91FF907E
:10088000EF90DF9008951F93CF93DF93182FD62F0B
:10089000C42F8091BA039091BB030E94EF030E9482
:1008A000E20380E00E94E803812F0E94E8038D2F7D
:1008B0000E94E8038C2F0E94E8030E94DD0381E080
:1008C000DF91CF911F910895CF92DF92EF92FF9227
:1008D0000F931F93CF93DF93CDB7DEB7C254D109E7
:1008E0000FB6F894DEBF0FBECDBFFC0182819381AD
:1008F000A481B58123968CAF9DAFAEAFBFAF2397D8
:1009000021E023962FAF239723964CAD5DAD6EADBE
:100910007FAD23974BAB5CAB6DAB7EAB89AF9AAF32
:10092000ABAFBCAF8DA79EA7AFA7B8AB28AB4DA50B
:100930005EA56FA578A94FA358A769A77AA72EAB84
:100940004BA95CA96DA97EA949A35AA36BA37CA35B
:100950008B8F9C8FAD8FBE8F49EB51E05C8B4B8BA7
:100960003FEF3D8B3E8B3F8B188E5E874D872AA7CE
:10097000CFA0D8A4E9A4FAA4CF86D88AE98AFA8AB3
:100980002CA309A11AA12BA13CA109871A872B87A7
:100990003C875A8349838B839C83AD83BE831091AC
:1009A000E0031093160368EE73E080E090E00E948D
:1009B000CD01812F0E9422011FB7F8948091150369
:1009C000811124C0EDECF1E08491E1EEF1E094912D
:1009D000E82FF0E0EE0FFF1FE754FE4FA591B49112
:1009E000EC91E92321F461E08AE00E945C018AE055
:1009F0000E9422018CB580618CBD8CB580648CBD59
:100A00008DE00E9422018BE00E942201809115035B
:100A10008F5F809315031FBF60E090E080E00E942D
:100A2000F203482F406864E090E080E00E944304B5
:100A30001CE088E0E82EF12C42E0612F8EE190E08E
:100A40000E94430442E0612F8FE190E00E94430442
:100A5000F1E0EF1AF108105EE114F10469F726E005
:100A600030E044E051E064E089E090E00E9411044D
:100A700024E030E0AE014D5F5F4F64E08FE090E036
:100A80000E94110424E030E0AE01415F5F4F64E05A
:100A900081E090E00E94110424E030E0AE014B5E62
:100AA0005F4F64E085E090E00E94110481E08C8754
:100AB00089859A85AB85BC858093D6039093D703AF
:100AC000A093D803B093D903CE5BDF4F0FB6F89451
:100AD000DEBF0FBECDBFDF91CF911F910F91FF9071
:100AE000EF90DF90CF9008959B018295880F807ED4
:100AF0006CE0680FC9010C944304CF93DF93EC01C1
:100B0000898D9A8D892B41F0E881F9810284F385E2
:100B1000E02DCE010995F4CFDF91CF910895CF93C9
:100B2000DF931F92CDB7DEB76983DC01ED91FC91B5
:100B30000280F381E02D41E050E0BE016F5F7F4F06
:100B400009950F90DF91CF9108951F93CF93DF9375
:100B5000FB01DC0158961C921E92579722812111AD
:100B600009C02381211106C02481211103C02581E0
:100B7000222339F14115510521F1EA01DC011C96CE
:100B80001C91AF014E5F5F4F612F6295660F607ED3
:100B9000645F24E030E08CE090E00E9411044D2F6F
:100BA00060E170E0812F0E9474054C2F61E170E0DC
:100BB000812F0E94740581E090E0DF91CF911F9119
:100BC000089590E080E0F9CFFC01818D928D089529
:100BD000FC0185899689089529EB31E0FC01318378
:100BE0002083FB014189528963897489FC01428316
:100BF000538364837583089580E00895FC01948590
:100C0000FB018485981303C081E0983009F480E0EB
:100C1000089521E0FC018485883009F420E0822FCA
:100C200008950895CF93DF931F92CDB7DEB7698300
:100C3000DC01ED91FC910280F381E02D41E050E078
:100C4000BE016F5F7F4F09950F90DF91CF9108959F
:100C5000DC01ED91FC91028CF38DE02D099591E082
:100C6000892708959B018295880F807E68E0680F30
:100C7000C9010C94F203BF92CF92DF92EF92FF92E0
:100C80000F931F93CF93DF93B82E6B017A018901E5
:100C900064E270E00E943206C82F65E270E08B2D9E
:100CA0000E943206D0E0DC2FCC278C0D9D2D911DAB
:100CB000C80FD91F6B2D6295660F607E6C5E980120
:100CC000A701CE010E941104C00FD11F4D2F64E275
:100CD00070E08B2D0E9474054C2F65E270E08B2D27
:100CE000DF91CF911F910F91FF90EF90DF90CF9008
:100CF000BF900C947405CF93C82F462F61E070E02D
:100D00000E94740561E070E08C2F0E943206811110
:100D1000F9CFCF910895CF93C82F60E170E00E9482
:100D20007B064FEF62E070E08C2FCF910C9474053E
:100D30000F931F93CF93DF93C82FD62F8A010E9462
:100D40008B064D2F70E060E08C2F0E94740501151A
:100D50001105B9F0412F64E070E08C2F0E947405FA
:100D6000402F65E070E08C2F0E94740561E070E018
:100D70008C2F0E947B0681E0DF91CF911F910F9114
:100D8000089500911303109114030F5F1F4F1093E8
:100D9000140300931303DECFCF93DF93EC018C8514
:100DA000883021F00E948B0688E08C87DF91CF91FC
:100DB0000895AF92BF92CF92DF92EF92FF920F937E
:100DC0001F93CF93DF93F82E5B016A01E22E68E256
:100DD00070E00E943206082F10E0102F002769E211
:100DE00070E08F2D0E943206E801C80FD11D80915E
:100DF000BA039091BB030E94EF030E94E2038D2F80
:100E00000E94E8038C2F0E94E8038F2D8295880FA3
:100E1000807E885E0E94E8038501AC0CBD1C80E0EA
:100E20000E94E803F80181938F01EA15FB05B9F7E9
:100E30000E94DD03E11018C0CC0DDD1D4D2F68E2CE
:100E400070E08F2D0E9474054C2F69E270E08F2DA9
:100E5000DF91CF911F910F91FF90EF90DF90CF9096
:100E6000BF90AF900C947405DF91CF911F910F91BB
:100E7000FF90EF90DF90CF90BF90AF9008950F93C9
:100E80001F93CF93DF931F92CDB7DEB78C01DC01A8
:100E9000ED91FC910084F185E02D0995892B91F06D
:100EA00021E041E050E0BE016F5F7F4FF801848593
:100EB0000E94D906898190E00F90DF91CF911F9118
:100EC0000F9108958FEF9FEFF7CFCF93DF931F928E
:100ED000CDB7DEB7FC01218D328D8FEF9FEF232B35
:100EE00059F021E041E050E0BE016F5F7F4F848503
:100EF0000E94D906898190E00F90DF91CF910895EB
:100F00001F93CF93DF93182F66E270E00E943206A2
:100F1000C82FD0E0DC2FCC2767E270E0812F0E9441
:100F200032068C0F9D2F911DDF91CF911F91089557
:100F3000FF920F931F93CF93DF93F82E10E000E002
:100F40008F2D0E948007EC01892B21F08F2D0E94AC
:100F500080078C01C017D10799F7CE01DF91CF919F
:100F60001F910F91FF900895FC018485883011F046
:100F70000C94980790E080E008951F93CF93DF933F
:100F8000182F60E270E00E943206C82FD0E0DC2FFC
:100F9000CC2761E270E0812F0E9432068C0F9D2FDA
:100FA000911DDF91CF911F910895FF920F931F9391
:100FB000CF93DF93F82E10E000E08F2D0E94BD0745
:100FC000EC01892B21F08F2D0E94BD078C01C017E9
:100FD000D10799F7CE01DF91CF911F910F91FF902B
:100FE0000895AF92BF92CF92DF92FF920F931F931B
:100FF000CF93DF938C015B01EA01FC01C788D08CA1
:10100000F4848F2D0E94D5078C179D0720F48F2D17
:101010000E94D507EC019E01A501B6018F2D0E940B
:101020003B06F8018789908D8C0F9D1F908F878BD1
:10103000CE01DF91CF911F910F91FF90DF90CF9064
:10104000BF90AF900895FC018485883021F063E063
:1010500070E00C94320680E00895CF93DF93FC019A
:1010600024852830D9F0EC010E942308843189F0CE
:10107000882379F0883169F021E08C3159F4E881D6
:10108000F9810084F185E02DCE01099521E0892BBD
:1010900009F420E0822FDF91CF91089580E0FBCF0B
:1010A000CF92DF92EF92FF92CF93DF93EC018C858A
:1010B000883049F168E070E00E947B060E94FF01E1
:1010C0006B017C01CE010E942308882391F00E94CD
:1010D000FF016C197D098E099F09683E73408105E7
:1010E000910538F461E070E080E090E00E94CD016D
:1010F000E9CFCE010E942308882319F08C850E9435
:101100008B0688E08C87DF91CF91FF90EF90DF9086
:10111000CF900895CF92DF92EF92FF921F93CF93DB
:10112000DF93182F6B017A010E949807EC0100975A
:10113000D9F463E070E0812F0E943206843159F0C7
:10114000882349F0C1E0D0E08C3111F4D0E0C0E058
:10115000D195C195D109CE01DF91CF911F91FF901B
:10116000EF90DF90CF900895E816F9060CF4E701B0
:101170001C161D0684F720E0AE01B601812F0E94E7
:10118000D90660E470E0812F0E947B06E4CFCF9304
:10119000DF93FC01218D328D2115310529F48FEF6C
:1011A0009FEFDF91CF910895EC018485421753079B
:1011B00008F0A9010E948A081816190684F7298DDB
:1011C0003A8D281B390B3A8F298FEBCF0F931F9342
:1011D000CF93DF931F92CDB7DEB7FC01218D328D07
:1011E000232B41F48FEF9FEF0F90DF91CF911F9151
:1011F0000F9108958C0141E050E0BE016F5F7F4F79
:10120000FC0184850E948A08181619065CF7F8010B
:10121000818D928D0197928F818F898190E0E4CFAB
:10122000FC0184850C948A08CF93DF931F92CDB77D
:10123000DEB741E050E0BE016F5F7F4FFC01848567
:101240000E948A081816190634F4898190E00F90DC
:10125000DF91CF9108958FEF9FEFF9CFCF93FC01EE
:10126000C48560E270E08C2F0E947B0662E070E033
:101270008C2F0E94320684FD11C062E070E08C2F3A
:101280000E94320683FFF2CF48E162E070E08C2FCB
:101290000E94740590E080E0CF91089540E162E003
:1012A00070E08C2F0E94740581E090E0F5CFEF9202
:1012B000FF921F93CF93DF93FC012485283039F0F0
:1012C00080E0DF91CF911F91FF90EF9008957B0117
:1012D000EC0110E063E070E0812F0E943206811182
:1012E0000EC01C878C85883059F3FE86ED861A8ED9
:1012F000198EA70162E00E94980681E0E2CF883152
:1013000081F31F5F183031F7EDCF8F929F92AF922C
:10131000BF92CF92DF92EF92FF920F931F93CF93E2
:101320006C015B017A01FC01C485C830A1F481E045
:1013300090E0F60193838283F12CE12CC701CF91D9
:101340001F910F91FF90EF90DF90CF90BF90AF90E3
:101350009F908F9008958A014130584010F000E02E
:1013600018E08C2F0E94D5074C0163E070E08C2FB1
:101370000E943206873111F08C3109F580169106F2
:1013800080F39801A50170E060E08C2F0E943B067D
:1013900060E270E08C2F0E947B0662E070E08C2F90
:1013A0000E94320684FD0EC063E070E08C2F0E9424
:1013B00032068111F2CF8C2F0E948B06B8CF10E03D
:1013C00000E0DFCF40E162E070E08C2F0E94740506
:1013D000012B09F0B3CFABCFDF92EF92FF920F93C7
:1013E0001F93CF93DF93FC012485283051F090E0C8
:1013F00080E0DF91CF911F910F91FF90EF90DF90F0
:1014000008957A01EB018C01D12C63E070E08D2D01
:101410000E943206811128C0F801D486F801848523
:10142000883029F320910201309103012F5F3F4F53
:1014300019F1309303012093020140910201509170
:10144000030161E00E9498068A818F3FC1F48B817D
:101450008F3F01F58C818F3FE9F48D818F3FD1F46F
:1014600088E0F8018487C3CF8B7F8831A9F2D394B9
:10147000F8E0DF12CACFD2CF20E034E0DACF81111A
:1014800009C08B81811106C08C81811103C08D81BF
:10149000882331F3E114F10419F3F801D484AE0187
:1014A0004E5F5F4F6D2D6295660F607E645F24E036
:1014B00030E08CE090E00E9411044F2D60E170E07C
:1014C0008D2D0E9474054E2D61E170E08D2D0E94DE
:1014D000740564E070E08D2D0E947B06C8010E94B7
:1014E0002308873161F061E070E080E090E00E94C5
:1014F000CD01C8010E9423088111F0CFB1CF81E056
:1015000090E077CF90E080E00895DC01ED91FC91D0
:10151000048CF58DE02D09946F3FB1F0E62FE29534
:10152000EF7044E0E49F90011124DC01ED91FC9107
:10153000E20FF31F6F70B8E06B9FC001112462814E
:101540007381860F971F089590E080E00895982F8B
:1015500080336CF08A3324F08F3524F08B3724F4F9
:1015600081E0089581341CF081E09B350CF080E02F
:101570000895FC01828581110AC0A781B085CD0143
:101580000196908787838C91818781E0828781850E
:1015900008951F93CF93DF93EC01162F0E94B90A91
:1015A000811306C01A8681E0DF91CF911F910895C3
:1015B00080E0FACF0F931F93CF93DF938C01EB0161
:1015C0008991882369F0C8010E94B90A882379F0BB
:1015D000FE013197908198130DC0F8011286F0CF6B
:1015E00090E080E0DF91CF911F910F91089582E00C
:1015F00090E0F8CF83E090E0F5CFCF93DF93EC015C
:10160000CE010E94B90A8B304CF489305CF48823F7
:1016100059F081E08E8390E080E00BC08D3011F0B6
:101620008032B9F71A86ECCF8E81811105C081E036
:1016300090E0DF91CF91089582E090E0FACF4F9251
:101640005F926F927F928F929F92AF92BF92CF9252
:10165000DF92EF92FF920F931F93CF93DF93EB01F3
:10166000DC012C912B32D9F12D32D1F50196FF24DA
:10167000F394FC01208130ED320F3A3018F02E3215
:1016800009F042C18C0160E070E0CB01F8012191CA
:1016900030ED832E820E39E0381520F16A3949E9A0
:1016A0007407840749E1940738F5AAE0B0E09B018C
:1016B000AC010E944632912CB12CA12C24013501A1
:1016C00040945094609470944616570668067906C4
:1016D00098F0680D791D8A1D9B1D8F01D7CF01964B
:1016E000F12CC7CF211108C0FF20E9F1613071054D
:1016F000810550E89507A0F0E12CBAE08B2E912CE3
:10170000A12CB12C6115710530E883079105B0F16A
:10171000A50194010E948832CA01B901E394F2CF75
:101720002C8120782A602C839B01AC018827992783
:10173000DC01821B930BA40BB50B88839983AA83CE
:10174000BB838F2DDF91CF911F910F91FF90EF9071
:10175000DF90CF90BF90AF909F908F907F906F90D1
:101760005F904F9008952C81207828602C836883A7
:1017700079838A839B83FF24F394E3CFF801D80114
:101780002D918D0130ED320F3A3010F4E394F6CF05
:101790002E3201F58F010F5F1F4FF8010F5F1F4FB2
:1017A0002081A0EDDA2ED20EB9E0BD1598F06C3C88
:1017B000ECEC7E07ECE08E07910578F7AAE0B0E04C
:1017C0009B01AC010E9446326D0D711D811D911D62
:1017D000EA94E3CF20812F7D10E000E0253409F06A
:1017E0005BC021812D32D1F53296CC24C394DF0128
:1017F00010E000E02E2D0E2C000C330B5AE0B52E1D
:10180000FD01DD9040ED4D0D4A3008F040C0B09E26
:10181000A001B19E500D11240D2DDD0C110B0053B4
:101820001109040F151FA801420F531F473251051C
:101830003CF38C81CC20C9F040E050E060E070E8DF
:10184000F11003C040E050E0BA0180788C608C83D6
:10185000488359836A837B83FC2C73CF2B3219F026
:101860003196C12CC4CF3296FCCF40E050E060E806
:101870007FEFF11004C040E050E060E87FE780783F
:101880008C608C83488359836A837B8374CFCC209C
:1018900019F01195019511092081211135C00E0D06
:1018A000111DE7FC1A950E9427313AE7C32E31E05B
:1018B000D32E101611063CF011950195110942E640
:1018C000C42E41E0D42EE12C0115110591F000FF4A
:1018D0000CC024E0E29EF0011124EC0DFD1D2591C9
:1018E0003591459154910E94883115950795E3945F
:1018F000EBCFF11090582C8120782C602C836883DA
:1019000079838A839B8337CFF12C1BCFCF92DF92D1
:10191000EF92FF92CF93DF9300D000D01F92CDB70C
:10192000DEB7FC0184818F778630D9F040F48430B3
:10193000A9F1853009F43FC090E080E014C08A30FE
:10194000F1F08C3009F43FC08830B1F7808191818B
:10195000A281B381811520E89207A105B10560F746
:1019600002C0808190E00F900F900F900F900F9029
:10197000DF91CF91FF90EF90DF90CF90089580811D
:101980009181A281B381AC01BD0150586F4F7F4F4F
:10199000411551056140710578F6E5CF808191814F
:1019A0001D82BE016F5F7F4F0E941F0BCE0101960B
:1019B0000E94860CD8CF808191811D82BE016F5F0D
:1019C0007F4F0496F1CFC080D180E280F38020E089
:1019D00030E040E057ECC701B6010E94CE3387FDEE
:1019E000ABCF20E03EEF4FEF56E4C701B6010E94B7
:1019F000223118160CF4A0CFC701B6010E9498330B
:101A0000CB01B1CFFC019289915084E0989F900165
:101A10001124A089B189A20FB31F1296ED91FC91F8
:101A200013973097E9F011962C9111978C91281704
:101A3000B8F481E0820F11968C9388E0289FA00172
:101A40001124E40FF51F309759F014828FEF85832E
:101A500017821682BF01892F8295807F820F089599
:101A600060E070E08FEF0895DF92EF92FF920F93A6
:101A70001F93CF93DF93EC017B01D12C6889798987
:101A80008A89D816E0F484E0D89E80011124060FDC
:101A9000171FD80112966D917C916115710541F067
:101AA000D701ED91FC910280F381E02DC7010995EA
:101AB000F8011382128210821182D394DFCF1A8A26
:101AC0008FEF8C8BC617D70761F0D701ED91FC9192
:101AD0000280F381E02DC7010995D98BC88B84E082
:101AE0008B8BDF91CF911F910F91FF90EF90DF9043
:101AF0000895DB01ED91FC9111970280F381E02DB7
:101B0000BC01CD010994CF93DF93EC01E881F98109
:101B1000B0E0A0E03097F9F09F012C5F3F4F6217D3
:101B20007307A1F4928191509283911114C0808126
:101B30009181109741F08D939C93BA01CF01DF9171
:101B4000CF910C94790D99838883F7CFDF010190B1
:101B5000F081E02DDFCFDF91CF9108958F929F929A
:101B6000AF92BF92CF92DF92EF92FF920F931F93AB
:101B7000CF93DF938C01EB01FC01848180FF0AC0CD
:101B800048815981608171816C5F7F4FCE010396DE
:101B90000E94830DF8018481807681F10115110581
:101BA00069F1D0805E01F5E1AF0EB11C4E0183E01A
:101BB000880E911CEFEFDE16F1F06D2DC5010E942D
:101BC0008C0A7C01FC01C580848187FF07C04881A5
:101BD000598166817781C4010E94830DBE01C701CE
:101BE0000E94AE0DF701848180788483898D85837E
:101BF000D98EDC2CDFCFF801D082D182DF91CF915A
:101C00001F910F91FF90EF90DF90CF90BF90AF901A
:101C10009F908F900895EF92FF920F931F93CF9311
:101C2000DF937C018B01EA016F3F710509F0B0F48D
:101C3000E881F9810480F581E02DAB014B5F5F4FB6
:101C4000BC01CE010995009749F0FC010383DF91A7
:101C5000CF911F910F91FF90EF900895E881F98146
:101C60000280F381E02DB701CE01099590E080E07C
:101C7000EECFFF920F931F93CF93DF93EC01F62EDD
:101C80008A819B810097C9F06C817D81FC01238151
:101C90002617170691F408811981F80140815181B6
:101CA000660F771F6F5F7F4F0E940B0E009719F42E
:101CB00021E0F80122839B838A838A819B8100979C
:101CC00059F02C813D81A9014F5F5F4F5D834C83AB
:101CD000820F931FFC01F482DF91CF911F910F912E
:101CE000FF9008959F92AF92BF92CF92DF92EF92B2
:101CF000FF920F931F93CF93DF9300D000D01F92DA
:101D0000CDB7DEB78C010E94B90AD82EF801128631
:101D1000F12CE12C60EFC62EC8010E94B90AF8012F
:101D20001286D81609F4B3C0811113C082E090E086
:101D30000F900F900F900F900F90DF91CF911F9108
:101D40000F91FF90EF90DF90CF90BF90AF909F905A
:101D500008958C3509F099C0C8010E94B90A8823FA
:101D600029F3EBEBF1E0853709F083C0F801128627
:101D700054E0952EB12CA12CC8010E94B90A8823E9
:101D8000A9F2813434F48053803130F083E090E064
:101D9000CFCF8F7D8753F8CF44E0AA0CBB1C4A9568
:101DA000E1F7A82AF80112869A949110E5CFC501AF
:101DB000985D8115944020F47501F3E0FF22ACCFCB
:101DC000C5019C5D81159440A8F483E0B822B70159
:101DD000762F6627770F770F6A297B2990E080E0BE
:101DE0000196603871058105910540F4C8010E9493
:101DF000390E92CFB50190E080E0F3CF1982262F03
:101E00002F7320682A8326E09695879577956795A6
:101E10002A95D1F76032710580F4606C6B835E01A6
:101E2000E4E0AE0EB11CF50162915F01662309F496
:101E300073CFC8010E94390EF6CF262F2F7320686A
:101E40002B8386E0769567958A95E1F76031710579
:101E500038F4606E6C835E01F5E0AF0EB11CE3CF29
:101E600060686C83CD825E0126E0A20EB11CDBCFE0
:101E700032969081992309F489CF8913F9CF818112
:101E8000882309F483CFF8011286682FAFCF8281AF
:101E90009381892B19F484E090E04ACF90E080E0B0
:101EA00047CFAF92BF92CF92DF92EF92FF920F9304
:101EB0001F93CF93DF93DC011296ED91FC91139762
:101EC00014968D919C911597E80FF91F14820D912E
:101ED0001C91119714966D917C91159712968D9186
:101EE0009C9113979C012C5F3F4FE801EB81FC8193
:101EF0007B01E20EF31E3097B9F0438146171706B7
:101F000079F45901AF014C5F5F4FEA14FB0499F17A
:101F1000E501C9905E01EA01D990AE01CD14A9F3A3
:101F20000190F081E02DE7CFED01F8014081518172
:101F30000E940B0EFC01892B21F481E0D80112963E
:101F40008C93A881B98113968D919C91149791835C
:101F500080831496FC93EE9313971B821A82CF0111
:101F6000DF91CF911F910F91FF90EF90DF90CF9075
:101F7000BF90AF90089582818F5F8283F0CFFB0185
:101F800001900020E9F73197AF01461B570BDC01A8
:101F9000ED91FC910280F381E02D09948F929F9244
:101FA000AF92BF92EF92FF920F931F93CF93DF9365
:101FB000CDB7DEB7A1970FB6F894DEBF0FBECDBF89
:101FC0007C01FA01CB0119A2223008F42AE08E012B
:101FD0000F5D1F4F822E912CB12CA12CBF01A501AA
:101FE00094010E948832F901CA016A300CF5605DE3
:101FF000D8016E938D01232B242B252B79F790E0AC
:1020000080E0109721F0BD01C7010E94BF0FA1968B
:102010000FB6F894DEBF0FBECDBFDF91CF911F91F9
:102020000F91FF90EF90BF90AF909F908F90089589
:10203000695CDECF8F929F92AF92BF92CF92DF9278
:10204000EF92FF920F931F93CF93DF937C01EB01ED
:102050006C0182E0C80ED11C4701E5E08E0E911C98
:1020600010E000E0F60141916F0150E070E060E0A7
:102070002AE0CE010E94CE0F5C01E881F981019037
:10208000F081E02D6EE2CE0109958A0D9B1D080FAF
:10209000191FC814D90431F7F701458150E070E0E9
:1020A00060E02AE0CE010E94CE0F800F911FDF91E9
:1020B000CF911F910F91FF90EF90DF90CF90BF9045
:1020C000AF909F908F900895DF92EF92FF920F93C1
:1020D0001F93CF93DF936115710561F460E070E0A9
:1020E0008FEF9D2DDF91CF911F910F91FF90EF907A
:1020F000DF9008958A01EB01DC01FC900B5E1F4F1D
:102100006F2DC8010E948C0A009741F3FC01E58005
:10211000009721F30680F781E02DDE010D9000206D
:10212000E9F79D01215031092C1B3D0BB0E0A0E0E7
:10213000309739F0DF010D900020E9F71197AE1BC1
:10214000BF0B2A173B0751F4DE012C0F3D1FA217CE
:10215000B30769F05D9141915417C9F36E2DC80121
:102160000E948C0A009709F4B9CFFE2CCFCFBC0196
:102170008F2DDE2CB6CF0F931F93CF93DF93EC01FF
:1021800088819981009759F02A813B81261737076A
:1021900030F081E0DF91CF911F910F9108958B0175
:1021A0006F5F7F4F0E941235009759F099838883A3
:1021B0001B830A832C813D81232B59F7FC0110825C
:1021C000E8CF80E0E7CFCB01BA010C941235FC01D7
:1021D00024813581232B39F421E0FB018081882380
:1021E00049F020E007C0808191810E94D83521E02C
:1021F000892BB9F7822F0895EF92FF920F931F93C7
:10220000CF93DF936115710541F480E0DF91CF91A9
:102210001F910F91FF90EF90089541155105B1F076
:102220007B01EC010C811D81040F151FB8010E9478
:10223000BB10882351F3288139818C819D81B7019E
:10224000820F931F0E94E1351D830C8381E0DECF56
:10225000CF93DF93EC01EAA1FBA1E80FF91F1282F3
:10226000BC016E5F7F4F81F0FB0101900020E9F718
:102270003197AF01461B570B888199810E94FC1052
:10228000882311F01BA21AA28AA19BA1DF91CF91F2
:1022900008951F93CF93DF93EC01162F8AA19BA182
:1022A00001968097B8F48AA19BA19C012F5F3F4FB4
:1022B0003BA32AA38C0F9D1FFC01128321E030E079
:1022C0008CA19DA1820F931F9DA38CA3DF91CF9121
:1022D0001F910895CE010E942811892B21F330E02F
:1022E00020E0EECFBF92CF92DF92EF92FF920F935A
:1022F0001F93CF93DF93EC016A018B017B01E40E06
:10230000F51EE016F106D1F0F801B1908F018AA117
:102310009BA10196809760F48AA19BA19C012F5FED
:102320003F4F3BA32AA38C0F9D1FFC01B282E9CF34
:10233000CE010E942811892B79F3E3CF4CA15DA136
:102340004C0D5D1D5DA34CA3DF91CF911F910F91AB
:10235000FF90EF90DF90CF90BF9008958F929F9263
:10236000AF92BF92CF92DF92EF92FF920F931F93A3
:10237000CF93DF93CDB7DEB766970FB6F894DEBF85
:102380000FBECDBF6C018E01095E1F4F78018AE040
:10239000882E912CA12CB12CCB01BA01A50194015E
:1023A0000E948832942F852F605DF80162938F011F
:1023B000A901692F782F411551056105710561F754
:1023C000A7014E1B5F0BBF01C6010E9472116696EA
:1023D0000FB6F894DEBF0FBECDBFDF91CF911F9136
:1023E0000F91FF90EF90DF90CF90BF90AF909F90B4
:1023F0008F900895FB0101900020E9F73197AF011C
:10240000461B570B0C9472111F93CF93DF93EBEB8A
:10241000F1E01281112379F0329621816213F9CF14
:10242000EC016CE50E944911612FCE01DF91CF9143
:102430001F910C9449116111F9CF6CEC71E0DF919F
:10244000CF911F910C94FA11CF92DF92EF92FF92ED
:102450000F931F93CF93DF938C016B017A0162E29C
:102460000E944911E601EC0CFD1CCE15DF0529F098
:102470006991C8010E940412F8CF62E2C801DF919D
:10248000CF911F910F91FF90EF90DF90CF900C9420
:1024900049112F923F924F925F926F927F928F924B
:1024A0009F92AF92BF92CF92DF92EF92FF920F93E3
:1024B0001F93CF93DF93CDB7DEB76C970FB6F89429
:1024C000DEBF0FBECDBF8C011B01DC0114968C91C9
:1024D00014978F77883009F4B2C2E8F4843009F495
:1024E00069C248F4833009F49FC263ED71E0C10111
:1024F0000E94FA111CC2853009F470C28630A9F717
:102500008C9168ED71E0811102C06DED71E0C10147
:102510000E94FA116DC28C30F1F1C8F48A3029F7AB
:10252000CD90DD90ED90FC90B701A601F7FE0BC0B9
:102530006DE2C1010E94491144275527BA014C1987
:102540005D096E097F09C1010E94AE1151C280323E
:1025500009F4F7C1803449F66BE5C1010E944911C5
:10256000F80110811F3F09F4E7C1D10196968D91C2
:102570009C91612F45960E948C0A8C01B1010E94AA
:102580004912F80115811F3F09F4D6C16CE2C1015F
:102590000E944911E7CFF801C080D180E280F3802A
:1025A000A7019601C701B6010E94223181119DCF7A
:1025B00020E030E0A901C701B6010E942231882342
:1025C00079F0A7019601C701B6010E94BA329B01BA
:1025D000AC01C701B6010E942231882309F485CFDE
:1025E00020E030E0A901C701B6010E94223187FF37
:1025F00008C06DE2C1010E944911F7FAF094F7F8A2
:10260000F09420E836E948E15BE4C701B6010E9496
:10261000CE3387FD88C074E1A72EB12C00E210E014
:10262000188E1F8AF501E658FE4F25913591459188
:102630005491C701B6010E94CE3387FD13C0F50146
:10264000EE59FE4F2591359145915491C701B60140
:102650000E9488316B017C012F89388D200F311F3A
:10266000388F2F8B1595079534E0A31AB1088CEF9E
:10267000A8168FEFB806B1F655245A9420E030E042
:10268000A901C701B6010E94CE3318160CF052C042
:102690002CEA35EC47E257E3C701B6010E9422312C
:1026A00018160CF447C0A52DB4E0AB02C0011124EC
:1026B000B12CA12CFC01EE59FE4F3F019C01265884
:1026C0003E4F49013FEF531609F434C0F301EA0DC0
:1026D000FB1D659175918591949120E030E040E279
:1026E00051E40E948831A70196010E94CE3318164A
:1026F0009CF4F401EA0DFB1D25913591459154910F
:10270000C701B6010E9488316B017C018F89988DC9
:10271000801B910B988F8F8B159507955A9494E099
:10272000A91AB108CFCF00E210E055E0552E188E5F
:102730001F8AA4CFC701B6010E949F334B015C01E1
:102740002B013C0106E080E492E4AFE0B0E0898F29
:102750009A8FAB8FBC8F102F01509AE0491651040D
:1027600061047104C8F0698D7A8D8B8D9C8D2AE08F
:1027700030E040E050E00E948832298F3A8F4B8F42
:102780005C8FC301B2012AE030E040E050E00E94DB
:10279000883229013A01DFCFC501B4010E942731F7
:1027A0009B01AC01C701B6010E94B9326B017C01EB
:1027B000698D7A8D8B8D9C8D0E9427319B01AC0198
:1027C000C701B6010E9488312B013C010E949F3352
:1027D0006B017C010E9427319B01AC01C301B20156
:1027E0000E94B9329B01AC010E94BA320E949F3311
:1027F000C60ED71EE81EF91E898D9A8DAB8DBC8D35
:10280000C816D906EA06FB06D8F09FEF891A990A7E
:10281000A90AB90AAF89B88DAB2B39F1BAE08B168A
:102820009104A104B10408F1EF89F88D3196F88F75
:10283000EF8BC12CD12C7601812C912C54018394E7
:102840002AE0422E512C612C712CC701B601A30144
:1028500092010E948832672B682B692B51F4111664
:1028600044F469017A011150F0CFC12CD12C7601CA
:10287000E7CFB501A401C1010E94AE11112371F18E
:102880004E01F1E18F0E911C012F54019AE0492E67
:10289000512C612C712C015068F0C701B601A301C5
:1028A00092010E948832605DD4016E934D016901EE
:1028B0007A01F1CF812F90E0BC0160957095F50110
:1028C000E81BF90B31978EE2808344275527461B7E
:1028D000570B6A0D7B1DC1010E947211EF89F88DA3
:1028E000EF2B29F165E6C1010E9449110F89188D6E
:1028F00017FF07C06DE2C1010E94491111950195B2
:102900001109FE0177969F018AE0E82EF12CC8019B
:10291000B7010E94D333805D82938B01672BB9F797
:10292000A9014E1B5F0BBF01C1010E947211D101B1
:1029300094968D919C915FC06DE5C1010E944911F3
:10294000F6CF6BE7C1010E944911F80110811F3FCA
:1029500079F1D10196968D919C91612F45960E94B7
:102960008C0A8C01FC01C680D78062E2C1010E9402
:1029700049117601D7016D917D01662321F0C101D6
:102980000E940412F7CF62E2C1010E9449116AE37A
:10299000C1010E944911B101C8010E944912F80108
:1029A00015811F3F29F06CE2C1010E944911CFCF70
:1029B0006DE7C3CFF8016081718150E040E061159F
:1029C000710541F0FB0101900020E9F73197AF015B
:1029D000461B570BC1010E942412A9CFED91FC9117
:1029E000438150E0BF016C5F7F4FC1010E94241200
:1029F000F10184A195A16C960FB6F894DEBF0FBECD
:102A0000CDBFDF91CF911F910F91FF90EF90DF909D
:102A1000CF90BF90AF909F908F907F906F905F907E
:102A20004F903F902F900895ED91FC91438150E09D
:102A3000BF016C5F7F4FC1010E947211D9CF4D91D0
:102A40005D916D917C917FCDCF93DF93EC01888177
:102A50009981009711F00E948934198218821D8291
:102A60001C821B821A82DF91CF910895EF92FF9210
:102A70000F931F93CF93DF93EC017B018A01BA017F
:102A80000E94BB1081110BC0CE010E942415CE0103
:102A9000DF91CF911F910F91FF90EF9008951D83CB
:102AA0000C83B701888199810E94E135F0CFCF93E3
:102AB000DF93EC016115710571F0FB0101900020BD
:102AC000E9F73197AF01461B570B0E943615CE012F
:102AD000DF91CF9108950E942415F9CFCF93DF9312
:102AE000EC01FB018617970749F060817181611540
:102AF000710541F0448155810E943615CE01DF9168
:102B0000CF9108950E942415F9CFFC011182108203
:102B10001382128215821482FB0101900020E9F7D2
:102B20003197AF01461B570B0C943615CF92DF92AD
:102B3000EF92FF920F931F93CF93DF93CDB7DEB742
:102B4000C85BD1090FB6F894DEBF0FBECDBF7C01C4
:102B5000FB01C080D18062817381C6014A9609F46D
:102B600076C0F601268D25FF72C0A6010E94641072
:102B70008B016BEC71E0C7010E94851501151105F1
:102B800049F0F80184818F77843009F463C085307F
:102B900009F47AC0CB56DF4FF982E882C559D0409C
:102BA000C954DF4F19821882C75BD040C7010E9409
:102BB000241584E2FE01EB56FF4FDE01AF58BF4FF4
:102BC00001900D928A95E1F784E2FE01EF58FF4FE4
:102BD000DE01A35BBF4F01900D928A95E1F784E27D
:102BE000FE01E35BFF4FDE01999601900D928A95FD
:102BF000E1F784E2FE01B996DE01119601900D9293
:102C00008A95E1F71EA21DA2CE0189960E94281185
:102C1000D8A6CFA2CE01835B9F4F0E942811011539
:102C20001105B9F1BE016F5F7F4FC8010E944912C3
:102C3000CE0101960E942811CE018F589F4F0E940D
:102C40002811CE018B569F4F0E9428110CC010E016
:102C500000E08FCF608171816115710509F49ACF11
:102C6000C7010E945715C701C854DF4F0FB6F8942B
:102C7000DEBF0FBECDBFDF91CF911F910F91FF90AF
:102C8000EF90DF90CF900895608171816C5F7F4FEE
:102C9000E3CF63ED71E0CE0101960E94FA11C8CF37
:102CA000FC0180819181009711F00C948934089582
:102CB0000F931F93CF93DF93EC0185E791E0998306
:102CC00088838E0104591F4FF801808191810097FC
:102CD00029F00E948934F801118210828E010C596A
:102CE0001F4FF80180819181009729F00E9489345B
:102CF000F80111821082CE018C5A9F4F0E9450160B
:102D0000CE01CE960E945016CE014C960E945016CF
:102D1000CE0146960E945016CE014096DF91CF918B
:102D20001F910F910C945016CF93DF93EC010E94EA
:102D30005816CE01DF91CF910C948934CB010C94BD
:102D400089340F931F93CF93DF938A01FC01E15ADB
:102D5000FF4FEC01CF59DF4F20813181888199816C
:102D6000820F931F0E94CF3588819981800F911F18
:102D700099838883C801DF91CF911F910F910895A6
:102D8000CF93DF9300D0CDB7DEB7762767277627BE
:102D90007A83698342E050E0BE016F5F7F4F0E94FB
:102DA000A1160F900F90DF91CF910895CF92DF92EF
:102DB000EF92FF920F931F93CF93DF93EC016B0180
:102DC0008A01BA010E94C0167C01A801B601CE0199
:102DD0000E94A1168E0D9F1DDF91CF911F910F9123
:102DE000FF90EF90DF90CF900895CF92DF92EF9217
:102DF000FF920F931F93CF93DF931F92CDB7DEB750
:102E000079016C012FE5C20ED11CD6010D931C93E4
:102E10008C010F591F4FF80111821082F0E16F9F52
:102E2000B0011124462B498341E050E0BE016F5FA1
:102E30007F4F0E94A1168E2D8F77EE0CEF2CEE1C8B
:102E4000FF08F194E114F10409F08068D601ED91D6
:102E5000FC91D8012D913C911197A9014F5F5F4FD3
:102E600011965C934E93E20FF31F8083E114F104FB
:102E700011F78D919C910F90DF91CF911F910F9140
:102E8000FF90EF90DF90CF900895CF92DF92EF9276
:102E9000FF920F931F93CF93DF93CDB7DEB7BC01A3
:102EA000CDB6DEB690914E04933008F062C0E0904B
:102EB0004B04F0904C04970191114AC02E5F3F4F94
:102EC000A9014B5F5F4FEDB7FEB7E41BF50B0FB6E3
:102ED000F894FEBF0FBEEDBF0DB71EB70F5F1F4FBB
:102EE00040914D04992311F0990F492B80914F0483
:102EF00081114860260F371F63E083EF93E00E9443
:102F0000F5166091470470914804A70183EF93E0A0
:102F10000E94D61680914E04882341F0609150049F
:102F20007091510483EF93E00E94C01683EF93E009
:102F30000E945D030FB6F894DEBE0FBECDBEDF91DA
:102F4000CF911F910F91FF90EF90DF90CF90089558
:102F50002C5F3F4F40915004509151044F5F5F4FA1
:102F600029F05093510440935004AACF41E050E01F
:102F7000F8CF90E080E0DECFCF92DF92EF92FF9229
:102F80000F931F93CF93DF9300D000D0CDB7DEB760
:102F90007C01FC01E95BFF4F8081813009F53296AD
:102FA000C080D1808E010F5F1F4F22E030E040E0F3
:102FB00064E0C7010E94F516B601C7010E94C01661
:102FC000C7010E945D030F900F900F900F90DF914B
:102FD000CF911F910F91FF90EF90DF90CF900895C8
:102FE000823089F7F701E75BFF4FC080D1808E0107
:102FF0000F5F1F4F22E030E040E065E0DACF8F92B4
:103000009F92AF92BF92CF92DF92EF92FF920F9377
:103010001F93CF93DF93DC01D2962D913C91263004
:10302000310581F010E000E0C801DF91CF911F91E0
:103030000F91FF90EF90DF90CF90BF90AF909F9057
:103040008F9008958A015B01EC01E881F981008489
:10305000F185E02D09956C010817190708F468013E
:10306000750110E000E00C151D05A9F00E94FF019C
:103070004B015C01CE010E944703892BF1F08C8546
:103080009D85DC01ED91FC910284F385E02D09958D
:103090008F3F980719F50115110521F28EA99FA9F7
:1030A000801B910B9FAB8EAB892B09F0BDCFCE015E
:1030B0000E94BC171BAA1AAAB7CFCE010E945203C6
:1030C000882349F30E94FF01681979098A099B093D
:1030D000683E73408105910568F2DDCF0F5F1F4F99
:1030E000D7018D937D01BFCFEF92FF920F931F9376
:1030F000CF93DF9300D0CDB7DEB77C01DC01ED913B
:10310000FC910688F789E02D0995882369F08E01E6
:103110000F5F1F4F30E020E040E06EE0C7010E94EB
:10312000F516C7010E945D03F70117A684859585F2
:10313000DC01ED91FC910488F589E02D09950F9053
:103140000F90DF91CF911F910F91FF90EF90089515
:10315000CF92DF92EF92FF92CF93DF936A017B01D0
:10316000C22FBC0187E494E00E945715C0934D0420
:1031700081E080934E0410924F0410925A041092F2
:1031800059049FEFC916D906E906F90609F480E04B
:10319000809356048FEFC816D806E806F80651F457
:1031A000C1E0D0E0CE01DF91CF91FF90EF90DF90B2
:1031B000CF900895C6010E944517EC01892B81F735
:1031C00083EF93E00E947418EDCF2F923F924F92BD
:1031D0005F926F927F928F929F92AF92BF92CF92A7
:1031E000DF92EF92FF920F931F93CF93DF93CDB7B0
:1031F000DEB762970FB6F894DEBF0FBECDBF7C017D
:103200000E944703892B61F4C7010E945203811178
:1032100007C0D701D3961C921E92D2979F961C92FC
:10322000F701E05BFF4FFE83ED836701FEE4CF0E05
:10323000D11CC701875B9F4F98878F8357019BE401
:10324000A90EB11C4701A4E48A0E911CF701EE5BA4
:10325000FF4FFA87E9872701F7E44F0E511C17014A
:103260008DE5280E311CD701A35BBF4FBC87AB8710
:10327000F701ED59FF4FFE87ED87C701845B9F4F34
:10328000988B8F871797BA8BA98BC7010E9447032A
:10329000892B09F4F1C0F70184859585DC01ED9156
:1032A000FC910284F385E02D09958C010E94FF01B9
:1032B000ED81FE816083718382839383D701D296EF
:1032C000ED91FC91D397E830F10508F0CFC0E559B6
:1032D000F64E0C94E73373198C196F1ADF1A311BF1
:1032E0006B1BAC1BAC1BC801F4E095958795FA9558
:1032F000E1F78F709927F70184AB0F7005AB17AA20
:1033000016AA81E090E0A0E0B0E080AF91AFA2AF5C
:10331000B3AF93AB82ABAAC0D8964D915D916D913E
:103320007C91DB97C8018F779927849F9001859FB7
:10333000300D949F300D1124D6968D919C91D79786
:10334000280F391FD7963C932E93D697E7E0440F6A
:10335000551F661F771FEA95D1F7F70140AF51AFB0
:1033600062AF73AF413051056042710500F1ED91DC
:10337000FC910488F589E02DC701099562960FB686
:10338000F894DEBF0FBECDBFDF91CF911F910F919B
:10339000FF90EF90DF90CF90BF90AF909F908F9075
:1033A0007F906F905F904F903F902F90089507FD12
:1033B0006CCFF70184A9823041F09CEF980F9230D6
:1033C00020F0873011F08B3059F4D701D5969C91BD
:1033D000911104C02230310509F4E7C1D701C7CFEC
:1033E000833009F585A986708630C1F3F70185A978
:1033F000982F991F9927991FA989BA899C93282FDB
:1034000030E0359527952370F2012083F701E85BC2
:10341000FF4F8170808383E090E0D701D3969C9327
:103420008E93D29720C0863051F4D5968C918230FD
:10343000A9F62230310591F682E090E0EECF893096
:1034400039F485A98111CACF23303105A9F3C6CF3C
:103450008D3021F6D5968C918111C0CF232B09F0A8
:10346000BDCF13AA12AAF60111821082F70182A918
:1034700093A9069709F009CFD7019F968C918823CD
:1034800009F47CCF0E94FF01F70103A114A125A13B
:1034900036A1E859FF4F80809180A280B3802B0134
:1034A0003C01481859086A087B08530142018016FC
:1034B0009106A206B30608F462C160837183828319
:1034C00093838E010F5F1F4F30E020E040E06CE0FF
:1034D000C7010E94F516C7010E945D034FCFD601B8
:1034E0008D919C9111979C012F5F3F4F2D933C93A1
:1034F0008E0D9F1DFC01E55BFF4F0083F70186A940
:1035000097A92817390709F0C0CE13AA12AA84A9CF
:10351000823039F4AF85B8898C9190E095AF84AF53
:10352000A5CF9CEF980F923020F0873011F08B30B0
:1035300089F4F50180819181982789279827D10105
:103540002D913C912817390709F09FCEF70115AE50
:1035500014AE8CCF8630E9F4D5016D907C90762442
:1035600067247624ED85FE85808181118ECE8E01C3
:103570000F5F1F4F22E030E040E067E0C7010E948C
:10358000F516B301C7010E94C016C7010E945D0372
:103590006DCF893009F079CED5018D919C91982716
:1035A00089279827F101208131812817390709F0EF
:1035B0006CCEAB85BC858C9190E0F701AFCFD60186
:1035C0008D919C9111979C012F5F3F4F2D933C93C0
:1035D0008E0D9F1DFC01E55BFF4F008322303105FE
:1035E00009F053CEF501808191819827892798278A
:1035F000D4018D939C93F70186A997A9029797AB65
:1036000086AB50E040E06BEC71E08701025C1F4F3D
:10361000C8010E943615D4016D917C91C8010E94A9
:10362000BB10F2014081D701D6962D913C91D797DE
:10363000F40180819181442381F002962817390793
:1036400008F495CEF6011182108284E090E0D70153
:10365000D3969C938E93D29709CF2817390790F76A
:10366000BDCE09831A8241E050E0BE016F5F7F4FFB
:10367000C701CE960E94FC10F40120813181A985FA
:10368000BA858D919C912817390709F0EFCEF70183
:1036900086A997A9821B930B97AB86ABD2012C917D
:1036A000222319F085E090E034CE26E030E033AB01
:1036B00022AB0684F785E02D309709F4DDCE09951D
:1036C000D701D6968D919C91892B09F0CFCEF70129
:1036D00013AA12AACBCED6018D919C9111979C0171
:1036E0002F5F3F4F2D933C938E0D9F1DFC01E55B9B
:1036F000FF4F00832230310509F0C7CDF70186A9BD
:1037000097A9029797AB86ABD5012D913C913227B3
:1037100023273227EF81F8853183208326E030E0AC
:10372000D701D3963C932E93D2971E96ED91FC91A0
:10373000309709F00995F70186A997A9892B09F017
:1037400095CEC7010E94BC17D7011E968D919C9102
:10375000892B09F0BCCF8ACEF70186A997A90097DB
:1037600019F0019797AB86ABD701D6968D919C91B6
:10377000D797892B09F4ABCF87E090E069CFF701A9
:10378000E05BFF4F80809180A280B3806819790947
:103790008A099B09000F111F221F331F6017710731
:1037A0008207930708F4EACD19CE833009F41ECEC0
:1037B00043CECF92DF92EF92FF920F931F93CF935E
:1037C000DF9300D000D0CDB7DEB7809156048111D1
:1037D00022C08091590490915A040E944517892B68
:1037E00039F483EF93E00E94741880E090E087C082
:1037F0004091590450915A046091570470915804B3
:1038000083EF93E00E943C032091590430915A04C5
:103810008217930731F71092560480914E04882343
:1038200009F491C08230B1F58FEF9FEF909330048F
:1038300080932F040E94FF016B017C010E94FF0115
:103840006C197D098E099F0900911A0410911B04BF
:1038500020911C0430911D046017710782079307A3
:1038600008F45AC0E0905004F09051048E010F5FAC
:103870001F4F22E030E042E066E083EF93E00E94D9
:10388000F516B70183EF93E00E94C01683EF93E033
:103890000E945D038FEF9FEF9093300480932F047D
:1038A0000E94FF016B017C010E94FF016C197D09E0
:1038B0008E099F0900911A0410911B0420911C0489
:1038C00030911D04601771078207930708F08DCFB0
:1038D00083EF93E00E945203882309F486CF83EF9D
:1038E00093E00E94E51820912F04309130042F3F7F
:1038F0003207D1F281E090E0232B09F080E00F90B5
:103900000F900F900F90DF91CF911F910F91FF902B
:10391000EF90DF90CF90089583EF93E00E945203E1
:10392000882309F49FCF83EF93E00E94E5188091EC
:103930002F04909130048F3F980709F47FCF892B93
:1039400009F490CF52CF81E051CF0F931F93CF93C3
:10395000DF93CDB7DEB728970FB6F894DEBF0FBE62
:10396000CDBF8C01DC01ED91FC910680F781E02D4B
:103970000995F80184850E949807892BB1F148E0E8
:1039800050E0BE016F5F7F4FD8011C968C910E9462
:103990008A0818161906F4F4D801519684E0FE013D
:1039A000319601900D928A95E1F78D8190E0982FE4
:1039B00088272E81820F911DF801968B858B8F8130
:1039C000282F30E0322F22278885820F932F911DD8
:1039D000928F818F28960FB6F894DEBF0FBECDBFB1
:1039E000DF91CF911F910F91089590E080E0F2CF89
:1039F0004F925F926F927F928F929F92AF92BF92FF
:103A0000CF92DF92EF92FF920F931F93CF93DF93AA
:103A1000CDB7DEB763970FB6F894DEBF0FBECDBF4C
:103A20007C016B013A01FB01DB018D918111FDCF1E
:103A300030E020E090E080E05AE04191442301F141
:103A4000843091050CF042C04E3269F42F3F3105AD
:103A500009F0E4F5D301A80FB91F12962C93019633
:103A600030E020E0EACF529FB001539F700D112447
:103A7000242F440F330B20533109260F371FDDCF7E
:103A80002F3F310509F014F584309105FCF4680EE0
:103A9000791EF3012283CC24C394D12CC6016396F2
:103AA0000FB6F894DEBF0FBECDBFDF91CF911F914F
:103AB0000F91FF90EF90DF90CF90BF90AF909F90CD
:103AC0008F907F906F905F904F900895F7014281A3
:103AD0005381648175818091E9039091EA03A091FB
:103AE000EB03B091EC03481759076A077B0709F409
:103AF00000C28701085F1F4F0E94FF016F70772788
:103B00007C5FC8010E945709813009F0F7C189EB39
:103B100091E09A838983F70182819381A481B581A1
:103B20008B839C83AD83BE8345E350E0BE016F5F12
:103B30007F4FC8010E94A505892B31F4D12CC12CDF
:103B4000C8010E94CC06AACF0E94FF01F70177832B
:103B5000668342E050E0B7016A5F7F4FC8010E9470
:103B6000F10781E090E09A83898342E050E0BE0152
:103B70006F5F7F4FC8010E94F10780E091E09A8358
:103B8000898342E050E0BE016F5F7F4FC8010E9411
:103B9000F1071A82198242E050E0BE016F5F7F4F49
:103BA000C8010E94F10742E050E0BE016F5F7F4F05
:103BB000C8010E94F10742E050E0BE016F5F7F4FF5
:103BC000C8010E94F1075601F6018081882301F1A6
:103BD0006501F60181912F01882311F08E32B1F435
:103BE00046018A189B081814190474F48D8641E064
:103BF00050E0BE01635F7F4FC8010E94F107A4013E
:103C0000B501C8010E94F1075201DECF6201E1CF88
:103C10001D8641E050E0BE01635F7F4FC8010E94F6
:103C2000F107C12CDD24D394DA82C98242E050E04E
:103C3000BE016F5F7F4FC8010E94F107DA82C9821F
:103C400042E050E0BE016F5F7F4FC8010E94F10764
:103C5000C8010E942E09892B09F470CFF3E0AF2E22
:103C6000B12C230122E0420E511C43C0F7014281D6
:103C7000538164817581818D928DA38DB48D481798
:103C800059076A077B0709F02AC1858D968DC5976C
:103C900009F025C181A192A10C970CF425C14CE03B
:103CA00050E0BE016F5F7F4FC8010E94C7088B8143
:103CB0009C819827892798279A8B898BF7014681C1
:103CC000578129813A814217530711F497FD2FC07C
:103CD000C8010E947D05ECEFCE2EDD24DA9481E050
:103CE000A81AB10809F42CCFFFEFCF16DF0609F0B0
:103CF00027CF0E94FF013B014C01C8010E94A51C77
:103D0000181619060CF4B2CF0E94FF016619770944
:103D100088099909693873418105910508F0DBC06C
:103D200062E370E080E090E00E94CD01E6CF8F700A
:103D30009270892B41F0C8010E947D057BEFC72E50
:103D4000DD24DA94CCCF6F807884762467247624BF
:103D5000D12CC12C61147104D1F4C8010E947D05DD
:103D60006AEFC62EDD24DA94BACF8D85811117C093
:103D7000C8010E94E608C8010E94E608C8010E9426
:103D8000E608C8010E94E608FFEFCF1ADF0A8D811E
:103D90009E81982789279827C816D906A8F441E05C
:103DA00050E0BE01635F7F4FC8010E94C7088D8548
:103DB0008823D9F28D859FEF980F9D878823A9F2DC
:103DC000C8010E94E608F6CF912C812C41E050E01A
:103DD000BE016D5E7F4FC8010E94C7088B89982F76
:103DE000907C61F4882389F08B899FEF980F9B8BDF
:103DF000882341F0C8010E94E608F6CFC8010E945E
:103E0000E6081B8A8B898111E1CF42E050E0BE01B8
:103E1000615F7F4FC8010E94C70842E050E0BE01C9
:103E2000635F7F4FC8010E94C708C8010E94E6086F
:103E3000C8010E94E608C8010E94E608C8010E9465
:103E4000E60842E050E0BE016F5E7F4FC8010E946D
:103E5000C7088F85988981159140E9F4CD84DE8467
:103E6000DC24CD24DC2481E0C816D104A1F48989A6
:103E70009A898115944041F0C8010E947D0557EF51
:103E8000C52EDD24DA942BCF44E050E0B201C80106
:103E90000E94C70824CFD12CC12C89899A899827E0
:103EA00089279827C816D90638F4C8010E94E60861
:103EB000FFEFCF1ADF0AF1CF2FEF821A920A6814B0
:103EC000790409F083CFC8010E947D0546EFC42E16
:103ED000DD24DA9404CFCC24CA94DC2C00CF2EEF5E
:103EE000C22EDD24DA94FBCE9DEFC92EDD24DA94B8
:103EF000F6CE8EEFC82EDD24DA94D0CDD12CC12C95
:103F0000CDCDCF92DF92EF92FF920F931F93CF937D
:103F1000DF93CDB7DEB7AF970FB6F894DEBF0FBE15
:103F2000CDBF7C016A0109EB11E01A8309831C866D
:103F30001B8688EE93E0A0E0B0E08D879E87AF8778
:103F4000B88B8EE191E09A87898788E08D8B198FF5
:103F5000088F1A8E1B8E1C8E1D8E1BA70AA71CA6EF
:103F60001DA61EA61FA68091D6039091D703A091EF
:103F7000D803B091D9038EA39FA3A8A7B9A78B8319
:103F80009C83AD83BE8318861F82AE01465D5F4F62
:103F9000CE0101960E94F81C81309105B1F4D70141
:103FA000ED91FC910488F589E02D1DA30CA38CA54F
:103FB0009DA5AEA5BFA58EA39FA3A8A7B9A7A6013F
:103FC000BE016C5D7F4FC7010995AF960FB6F8949F
:103FD000DEBF0FBECDBFDF91CF911F910F91FF903C
:103FE000EF90DF90CF900895CF92DF92EF92FF9203
:103FF0000F931F93CF93DF93CDB7DEB7AF970FB675
:10400000F894DEBF0FBECDBF7C016A0109EB11E061
:104010001A8309831C861B8688EE93E0A0E0B0E03B
:104020008D879E87AF87B88B8EE191E09A878987CD
:1040300088E08D8B198F088F1A8E1B8E1C8E1D8E1B
:104040001BA70AA71CA61DA61EA61FA68091D60305
:104050009091D703A091D803B091D9038EA39FA3C9
:10406000A8A7B9A78B839C83AD83BE8318861F82C4
:10407000AE01465D5F4FCE0101960E94F81C813073
:104080009105B1F4D701ED91FC910684F785E02DFF
:104090001DA30CA38CA59DA5AEA5BFA58EA39FA314
:1040A000A8A7B9A7A601BE016C5D7F4FC7010995FE
:1040B000AF960FB6F894DEBF0FBECDBFDF91CF91A4
:1040C0001F910F91FF90EF90DF90CF9008958F9206
:1040D0009F92AF92BF92CF92DF92EF92FF920F9397
:1040E0001F93CF93DF936C018B01DB015996FC90FA
:1040F000BFEFFB1621F16F2DC80145960E948C0A77
:10410000EC018D81F801818F209709F496C01C8203
:104110008FEF8D831F821E82D60111966C916F3FA7
:1041200009F49FC0C80145960E948C0AFC01F582E3
:10413000D6011196FC92BE018F2D9D8084C05B013B
:10414000F5E0AF0EB11CDB01ED90FC901197579696
:104150008C91882349F0C5010E94020DC62FD72FEC
:10416000209711F0F82ED8CFF801C789908DC91388
:1041700025C0C03109F461C0CC0F65897689D701AB
:10418000ED91FC91B4E0CB9FA0011124A616B706D7
:1041900009F04BC00190F081E02DBA01C7010995EB
:1041A000009709F44AC020E1F501DC0101900D926D
:1041B0002A95E1F7F801968B858BC08FD80155962B
:1041C000CD91DC91569757968C91579721E0280F07
:1041D00057962C93B4E08B9FC0011124C80FD91FB0
:1041E00090E1892E203111F48FE0882EE8E08E9E38
:1041F000B0011124D701ED91FC910190F081E02DE7
:10420000C70109959B838A83892B09F4812C8882B5
:104210001982CD2B91F0C5010E94020DC62FD72F18
:10422000F82E209709F078CF08C00480F581E02DA2
:10423000C7010995009709F0BDCF81E0F80182839D
:1042400060E070E08FEF992DDF91CF911F910F917A
:10425000FF90EF90DF90CF90BF90AF909F908F90A6
:104260000895F601F082F18266CF8F929F92AF920D
:10427000BF92CF92DF92EF92FF920F931F93CF9353
:10428000DF93EC018B01D42E0E94FD0A7C01892B67
:1042900009F047C0CE010E94B90A863609F452C11E
:1042A00024F5873229F08B3561F1823209F053C150
:1042B0001D821C828A819B81892B31F4888199819E
:1042C0000E9441019B838A83CE010E94720E7C0171
:1042D000892B39F5CE010E94510FF80124812078F5
:1042E00025602483918380831CC0843709F412C124
:1042F0008B3709F45BC08E3609F02DC163ED71E098
:1043000012C1F801848180788064848301151105CD
:1043100019F08FEF80838183D11011C025E0E22E48
:10432000F12CC701DF91CF911F910F91FF90EF907A
:10433000DF90CF90BF90AF909F908F9008951A8696
:10434000CE010E94FD0A009709F085C06DE5CE01FF
:104350000E94C90A8111E5CFDA946B857C85C8017A
:104360000E9467206115710521F484E0E82EF12C8C
:10437000D8CF4D2DCE010E943521009709F06BC09A
:10438000CE010E94FD0A009709F065C06DE5CE01DF
:104390000E94C90A8111C5CF6CE2CE010E94C90AF0
:1043A0008111DBCF93E0E92EF12CBBCFF8018481A2
:1043B0008078806284830115110519F08FEF808366
:1043C0008183DD2009F4AACF1A86CE010E94FD0A5E
:1043D000009709F040C06DE7CE010E94C90A811123
:1043E000A0CFBB24BA94BD0C1D821C828A819B8104
:1043F000892B31F4888199810E9441019B838A83B2
:10440000CE010E94B90A8732E1F08232D1F0CE01AA
:104410000E94B90AD82E0E94A70A882319F21A8688
:104420006D2DCE010E94390ECE010E94B90AD82E00
:104430000E94A70A8111F3CF8A819B81892B31F4D5
:1044400094CFCE010E94720E009729F4CE010E94F3
:10445000FD0A009711F07C0164CF6AE3CE010E944F
:10446000C90A882309F49ECFEA81FB818C819D8152
:10447000E80FF91F14824B855C856A817B816C5F34
:104480007F4FC8010E946410CB016B01672BC9F5F7
:10449000CE010E94510F4C016B857C85C8010E94A2
:1044A00067206B016115710509F45FCFFB01848101
:1044B00080688483F4E08F0E911CF60197828682D7
:1044C0004B2DB601CE010E943521009721F6CE0179
:1044D0000E94FD0A009709F0BECF6DE7CE010E9451
:1044E000C90A81111ECF6CE2CE010E94C90A88233D
:1044F00009F458CFCE010E94FD0A009709F474CF49
:10450000AACF6B857C850E94AE0DF60184818078F0
:104510008483D6CFF801848180788660848381E0AB
:10452000808368ED71E0CE01DF91CF911F910F91F3
:10453000FF90EF90DF90CF90BF90AF909F908F90C3
:104540000C94DA0AF8018481807886608483108272
:104550006DED71E0E8CFCE010E94B90A5E01FDE089
:10456000AF0EB11CD12C9A2CCB2C803374F08A3333
:1045700074F49FE3D91699F01A86D394F5018193C8
:104580005F01CE010E94B90AF0CF8B3291F393ED17
:10459000980F923070F3982F9F7D953451F3CD0D85
:1045A000D11D1D86B801892D9C2D0E941F0B8111E4
:1045B000B8CEF8CE2F923F924F925F926F927F9239
:1045C0008F929F92AF92BF92CF92DF92EF92FF9223
:1045D0000F931F93CF93DF93CDB7DEB769970FB6D5
:1045E000F894DEBF0FBECDBF7C015B016A0189017B
:1045F0002DB73EB7398F288F0E945203882359F078
:10460000D7011C968D919C91DC01ED91FC91048861
:10461000F589E02D0995F70113AA12AA17A6E35A06
:10462000FF4F11821082D7011C968D919C91DC0165
:10463000ED91FC91C114D10489F10088F189E02D3C
:10464000A801B6010995892B09F03FC08EEF9FEFB5
:10465000F70196A785A710E000E0C801E88DF98D65
:104660000FB6F894FEBF0FBEEDBF69960FB6F89473
:10467000DEBF0FBECDBFDF91CF911F910F91FF9095
:10468000EF90DF90CF90BF90AF909F908F907F90F2
:104690006F905F904F903F902F9008950684F7851C
:1046A000E02D29EB31E03A832983D50112964D9113
:1046B0005D916D917C9115974B835C836D837E83B7
:1046C000A801BE016F5F7F4FBDCF0E94FF01F701C0
:1046D000E05BFF4F60837183828393831B8A1A8A16
:1046E0001D8A1C8A1F8A1E8AB701605F7F4FCE0118
:1046F00042960E946E156E887F88F701828C938C9B
:10470000A0A0B1A09E012F5F3F4F29016114710449
:1047100009F50E94FF019F938F937F936F9383EE20
:1047200091E09F938F931F9281E18F935F924F92BD
:104730000E94E835B201CE0142960E9457158DB70E
:104740009EB70A960FB6F8949EBF0FBE8DBF70E15C
:10475000672E712C17019EE6290E311CD101CD90D8
:10476000DC90BCE0CB0ED11CC60CD71C80E08114C1
:10477000910429F0C4010296C80ED91E80E8A11444
:10478000B10431F0806495012E5F3F4FC20ED31EFD
:10479000F701EE58FF4F9081892BF70192A19111FB
:1047A000826020E034E03A8329834091F101509106
:1047B000F2016091F3017091F4014B835C836D838E
:1047C0007E8394E09F838887D70193966D917D9136
:1047D0008D919C91969728EE33E040E050E00E9446
:1047E0008832922F8827232F342F452F5527282BA7
:1047F000392B3A872987C6010596EDB7FEB7E81B26
:10480000F90B0FB6F894FEBF0FBEEDBF0DB71EB784
:104810000F5F1F4F960140E061E0C7010E94F5164F
:104820004AE050E0B201C7010E94A1166A897B8963
:10483000A301C7010E94D616D1014D915C9141158B
:10484000510541F0F701E459FF4F60817181C701C3
:104850000E94A1168114910439F0F70166897789C5
:10486000A401C7010E94D616A114B10441F0D701DA
:104870005C966D917C91A501C7010E94D616C70177
:104880000E945D038C01892BA1F4F7018485958535
:10489000DC01ED91FC910488F589E02D099583E018
:1048A00090E0F70196A785A7CE0142960E94501688
:1048B000D4CE8FEF9FEFD701DD969C938E93DC973C
:1048C0000E94FF014B015C010E94FF0168197909F8
:1048D0008A099B09F70107A110A521A532A5601738
:1048E00071078207930770F4C7010E94520388235F
:1048F00049F0C7010E94E518D701DC968D919C9183
:10490000019611F3F70184AD95AD96A785A7892B84
:1049100029F481E087A701E010E0C6CF8485958562
:10492000DC01ED91FC910488F589E02D099510E0FA
:1049300000E0BACFCF93DF9300D000D000D0CDB746
:10494000DEB79A0149EB51E05A8349831B821C82EE
:104950001D821E82AB01BE016F5F7F4F0E94DA2273
:1049600026960FB6F894DEBF0FBECDBFDF91CF9174
:104970000895CF93DF9300D000D000D0CDB7DEB73D
:104980009A0149EB51E05A834983FB0142815381EB
:10499000648175814B835C836D837E8350E040E04E
:1049A000BE016F5F7F4F0E94DA2226960FB6F89401
:1049B000DEBF0FBECDBFDF91CF910895AF92BF9202
:1049C000CF92DF92EF92FF920F931F93CF93DF93DB
:1049D0005B018A01FC01E059FF4F20813181232BCB
:1049E00061F0DF91CF911F910F91FF90EF90DF90D9
:1049F000CF90BF90AF900C94A116FC01ED59FF4FE2
:104A00002081222361F0DF91CF911F910F91FF90C0
:104A1000EF90DF90CF90BF90AF900C943C037C015F
:104A200026E6E20EF11CF701C080D180FC0123A52F
:104A300034A54C0D5D1D4217530718F089010C1960
:104A40001D09EC01CC59DF4F88819981892B29F40C
:104A5000C9010E94ED339983888388819981A801D7
:104A6000B5018C0D9D1D0E94CF35F701808191818C
:104A7000800F911F91838083C801DF91CF911F9197
:104A80000F91FF90EF90DF90CF90BF90AF9008957F
:104A9000FC01448155816081718183EF93E00C9426
:104AA000DE24CB010C94ED332F923F924F925F9214
:104AB0006F927F928F929F92AF92BF92CF92DF922E
:104AC000EF92FF920F931F93CF93DF93CDB7DEB793
:104AD000A8970FB6F894DEBF0FBECDBFA8959C0176
:104AE000220F331F3EA32DA3F901EC55FD4F00818A
:104AF00011810115110509F46AC166EF71E0CE015B
:104B00004B960E948515F80180859185812C912C0A
:104B1000540197FD9FC00E94FF012B013C01C12C55
:104B2000D12CE12CF12C19A21AA21BA21CA2212C1F
:104B3000312C812C912C0E94FF0164197509860982
:104B40009709643F71408105910508F060C0F80144
:104B500080858E3008F08E508770806480937C0052
:104B600080917A00806480937A0080917A0086FD3B
:104B7000FCCF209178003091790038A72FA326E64A
:104B800036E646E65FE3B101C4010E9488314B017D
:104B90005C01EFA1F8A5BF01FF0F880B990B0E94E4
:104BA00029312AE038E240EA5BE30E9488312EE5B1
:104BB0003AEB41E250E40E94B932F8012485358590
:104BC000468557850E9426332DEC3CEC4CEC5DE38A
:104BD0000E948831A50194010E94BA321B014C0148
:104BE00029A13AA14BA15CA10E94CE33181624F44E
:104BF00029A23AA28BA29CA29601A701B101C401ED
:104C00000E94223187FF97CF6101740194CF9601F2
:104C1000A70169A17AA18BA19CA10E94B93220E0D1
:104C200030E040E05FE30E948831F801208931895B
:104C3000428953890E94B93224EF3DEF44E35FE398
:104C40000E94883120E030E046E653E40E9488313B
:104C50004B015C01F801C284D38469E072E0CE01AB
:104C600045960E948515F8014481558160817181C6
:104C7000CE0145960E94FC10811104C0CE014596DC
:104C80000E9424154CE050E064E172E0CE014596AC
:104C90000E94FC10811104C0CE0145960E9424158B
:104CA0004AE09E012F5F3F4F7901B901C6010E9482
:104CB000A12EF70101900020E9F73197AF014E19BD
:104CC0005F09B701CE0145960E94FC10811104C016
:104CD000CE0145960E9424154CE050E061E272E05E
:104CE000CE0145960E94FC10811104C0CE0145966C
:104CF0000E942415870122E044E0C501B4010E940E
:104D00005C2EFC0101900020E9F73197AF01481BB0
:104D1000590BBC01CE0145960E94FC10811104C0C4
:104D2000CE0145960E9424151A8219821C821B828C
:104D30001E821D82BE016B5E7F4FC7010E946E15F1
:104D4000CE0145960E9450164D815E8169817A811F
:104D5000CE014B960E94FC10C7010E94501641E004
:104D600050E061EA72E0CE014B960E94FC108F8CFD
:104D700098A0B12CA12CEDA1FEA1EC55FD4F008116
:104D8000118162EE72E0C7010E948515F80144812D
:104D9000558160817181C7010E94FC10811103C09F
:104DA000C7010E94241520E0B501A40189819A81E0
:104DB0000E94A818C7010E945016CE014B960E946F
:104DC00048250E94D91BCE014B960E945016A896EA
:104DD0000FB6F894DEBF0FBECDBFDF91CF911F910C
:104DE0000F91FF90EF90DF90CF90BF90AF909F908A
:104DF0008F907F906F905F904F903F902F9008958D
:104E00004F925F926F927F928F929F92AF92BF92DA
:104E1000CF92DF92EF92FF920F931F93CF93DF9386
:104E2000CDB7DEB7CE57D1090FB6F894DEBF0FBEAF
:104E3000CDBF4DB65EB62DB73EB7281B390B0FB6AA
:104E4000F8943EBF0FBE2DBF8DB79EB701967C0173
:104E50008C018091250490912604069771F480912D
:104E6000290490912A04892B41F083EF93E00E945A
:104E70009F03F80181938F01ECCFB70187E193E0A5
:104E80000E94BF0F67E372E087E193E00E94BF0FCB
:104E90008E01025B1F4F80E091E0F80191838083D7
:104EA000128214821382C8010596968B858B178A0D
:104EB00024E0208F2FEF218F168E60E071E00E949A
:104EC000340DF8011282C080D180F8018381948171
:104ED000009751F0FC0120813181F8013483238354
:104EE000B6010E94790DF1CF168E1A8309831C82B8
:104EF0001B821E821D821F82F986E8861B861D8703
:104F00000C874AE0B801665E7F4FCE0101960E9491
:104F100035218B819C81009731F0E981FA81608194
:104F200071810E94790D1A8309838AE392E09C8340
:104F30008B83BE016F5F7F4FCE0187589F4F0E94CA
:104F4000961562E472E0CE0187589F4F0E94E710E9
:104F5000882309F48AC0A8951A83098388E492E01B
:104F60009C838B83BE016F5F7F4FCE0183599F4F20
:104F70000E949615E5961FAF0EAFE5978DE492E07F
:104F8000E7969FAF8EAFE797BE016D587F4FCE017A
:104F900001960E949615E5961FAF0EAFE59784E542
:104FA00092E0E7969FAF8EAFE797CE018D589F4F67
:104FB0000E94B2297C01E5961FAF0EAFE59788E508
:104FC00092E0E7969FAF8EAFE797CE018D589F4F47
:104FD0000E94B2295C01E5961FAE1EAEE597E796EA
:104FE0001FAE1EAEE797E9961FAE1EAEE997BE0153
:104FF0006F5F7F4FCE018D589F4F0E946E1584E1E9
:1050000090E00E94ED336C019E012D583F4FA501A9
:10501000B7010E94C929F701EE0FFF1FEC55FD4FA4
:10502000D182C082CE018D589F4F0E94501663E3FB
:1050300072E0CE018D589F4F0E948515BE016D58BC
:105040007F4FC6010E94F629CE018D589F4F0E94C6
:105050005016C7010E945425CE0101960E94501699
:10506000CE0183599F4F0E94501661E672E0CE0137
:1050700087589F4F0E94E710882309F4A3C0A89582
:105080001A83098388E692E09C838B83BE016F5F5D
:105090007F4FCE0183599F4F0E949615E3968EACA9
:1050A0009FACE397AF96CEACDFACAF9784EA682EA7
:1050B00082E0782EF12CE12CF301A190B1903F0118
:1050C000F501848195818815990591F480819181FC
:1050D000009771F1C114D10439F481149104B1F134
:1050E000FC01808190E030C0B6010E94D8352CC010
:1050F000FFEFEF1AFF0A2AE0E216F104E9F65DC0BD
:10510000CE0187589F4F0E945016F801E080F18031
:10511000F80183819481009709F45FC0FC0120812C
:105120003181F80134832383B7010E94790DF0CFD8
:10513000C114D10459F08114910441F0F601808129
:1051400090E0919581959109892B91F6E5961FAF95
:105150000EAFE59784E792E0E7969FAF8EAFE797B3
:10516000BE016D587F4FCE0101960E949615E596BF
:105170001FAE1EAEE597E7961FAE1EAEE797E99607
:105180001FAE1EAEE997BE016F5F7F4FCE018D58F7
:105190009F4F0E946E15BE016D587F4FC5010E9442
:1051A000F629CE018D589F4F0E945016C7010E94CC
:1051B0005425CE0101960E945016CE0183599F4F6F
:1051C0000E9450166AE772E0CE0187589F4F0E94F6
:1051D000E710882309F494CFFFCF60817181C80163
:1051E00005960E94340D0FB6F8945EBE0FBE4DBEFC
:1051F000C258DF4F0FB6F894DEBF0FBECDBFDF91B0
:10520000CF911F910F91FF90EF90DF90CF90BF90C3
:10521000AF909F908F907F906F905F904F90089588
:105220001F920F920FB60F9211242F933F938F93DB
:105230009F93AF93BF9380910B0390910C03A09128
:105240000D03B0910E0330910A0323E0230F2D3795
:1052500058F50196A11DB11D20930A0380930B03FD
:1052600090930C03A0930D03B0930E0380910F0352
:1052700090911003A0911103B09112030196A11D0A
:10528000B11D80930F0390931003A0931103B0936B
:105290001203BF91AF919F918F913F912F910F90EA
:1052A0000FBE0F901F90189526E8230F0296A11DA0
:1052B000B11DD2CF1F920F920FB60F9211242F93D0
:1052C0003F934F935F936F937F938F939F93AF938E
:1052D000BF93EF93FF9387E193E00E94AD02FF91AC
:1052E000EF91BF91AF919F918F917F916F915F915E
:1052F0004F913F912F910F900FBE0F901F901895D7
:105300001F920F920FB60F9211242F938F939F939A
:10531000EF93FF93E0912703F09128038081E091C0
:105320002D03F0912E0382FD1BC0908180913003EC
:105330008F5F8F7320913103821741F0E09130032A
:10534000F0E0E95EFC4F958F80933003FF91EF9181
:105350009F918F912F910F900FBE0F901F901895D6
:105360008081F4CFFC014081518162817381CA0147
:105370004A9661F0FA01268D25FF08C00E9464104C
:105380006115710519F0CB010C94860C90E080E05A
:105390000895CF92DF92EF92FF920F931F93CF93D6
:1053A000DF93EC017B018A0169016BEC71E00E94E3
:1053B00085158DEC9CECACECBDE38C879D87AE87AE
:1053C000BF87888B998BAA8BBB8BB601CE010E94BD
:1053D0006E15FF82EE8219870887DF91CF911F91AA
:1053E0000F91FF90EF90DF90CF900895AF92BF9212
:1053F000CF92DF92EF92FF920F931F93CF93DF93A1
:105400007C016B016EE272E0C6010E94E710F701B9
:10541000C681D7818823A1F061E08C2F0E945C01B6
:105420008FEF90E0F70193878287DF91CF911F91F3
:105430000F91FF90EF90DF90CF90BF90AF900895C5
:1054400063E372E0C6010E94E710882341F060E048
:105450008C2F0E945C01F70113861286E6CFF601BD
:1054600080819181B12CA12C009721F00E947A2E8D
:10547000B62EA72E0B2D1A2D8C2F0E94220101155E
:10548000110529F460E08C2F0E945C012BC00F3FB6
:10549000110511F461E0F7CFFE01FF27E556FE4F3D
:1054A000E491E33079F140F4E130C1F0E23029F1E8
:1054B000003811057CF7E6CFE73081F1E830B1F133
:1054C000E430B1F7809180008062809380008B2D62
:1054D0009A2D90938B0080938A0004C084B58068D5
:1054E00084BDB7BCF60180819181009739F10E949B
:1054F0007A2EF7017387628798CF84B5806284BD66
:10550000B8BCF0CF809180008068809380008B2DA4
:105510009A2D9093890080938800E4CF8091B00009
:1055200080688093B000B092B300DCCF8091B0006F
:1055300080628093B000B092B400D4CF60E070E09D
:10554000CB01D7CFFF920F931F93CF93DF93E7E168
:10555000F3E01382128288EE93E0A0E0B0E084834F
:105560009583A683B78323E631E03183208325EC3E
:1055700030E03587248724EC30E03787268720EC1D
:1055800030E0318B208B21EC30E0338B228B22EC0E
:1055900030E0358B248B26EC30E0378B268B118E58
:1055A000128E138E148EE4EBF3E009EB11E01183FD
:1055B00000831282138214821582EAEBF3E020E565
:1055C0002083FF24F394F182ECEBF3E0118300835A
:1055D0001282138214821582E2ECF3E011830083BD
:1055E0001282138214821582E8ECF3E011830083A7
:1055F0001282138214821582EEECF3E01183008391
:105600001282138214821582E1EEF3E0118300838B
:105610001282138214821582E4EDF3E01183008379
:105620001282138214821582138612862AE024873E
:10563000E7EEF3E011830083128213821482158255
:10564000EDEEF3E01183008312821382148215823F
:10565000E9E7F4E011830083128213821482158239
:10566000E3E7F4E01183008320EC228328EA23831C
:1056700022E0248321EB2583E6E6F4E01382128204
:1056800084839583A683B78327E931E03183208320
:1056900028E02487C3EFD3E01B821A828C839D838A
:1056A000AE83BF8385E791E099838883FD87EC878C
:1056B0001F861E866BEC71E083E094E00E948515E6
:1056C0006BEC71E089E094E00E9485156BEC71E071
:1056D0008FE094E00E948515FAA280E69AEEA0E0A1
:1056E000B0E08BA39CA3ADA3BEA380E395E7A0E0AD
:1056F000B0E08FA398A7A9A7BAA780E890E09CA7DD
:105700008BA71EA61DA61FA619AA18AA1BAA1AAA0D
:105710006BEC71E081E394E00E9485156BEC71E025
:1057200087E494E00E948515109255041092540469
:10573000109258041092570410925A04109259046F
:105740001092600410925F0410926204109261043F
:105750001092640410926304109265041C821D82EE
:105760001E821F82EFE7F4E011830083128213820E
:1057700014821582DF91CF911F910F91FF900895B0
:10578000CF93DF93CDB7DEB72D970FB6F894DEBF7A
:105790000FBECDBF789484B5826084BD84B581602E
:1057A00084BD85B5826085BD85B5816085BD8091EC
:1057B0006E00816080936E00109281008091810064
:1057C000826080938100809181008160809381005C
:1057D000809180008160809380008091B10084601E
:1057E0008093B1008091B00081608093B00080917F
:1057F0007A00846080937A0080917A00826080933E
:105800007A0080917A00816080937A0080917A009A
:10581000806880937A001092C1000FB6F894A89522
:1058200080916000886180936000109260000FBEDC
:10583000E0912703F091280382E08083E091230325
:10584000F09124031082E0912503F091260380E17A
:10585000808310922F03E0912B03F0912C0386E0BC
:105860008083E0912903F0912A0380818061808305
:10587000E0912903F0912A03808188608083E09180
:105880002903F0912A03808180688083E0912903B5
:10589000F0912A0380818F7D808362E971E087E146
:1058A00093E00E940B0267E372E087E193E00E94BD
:1058B000BF0F10E0812F0E94220160E0812F0E9423
:1058C0005C011F5F1A30B1F788E199E20FB6F894D6
:1058D000A895809360000FBE9093600089EB91E0E3
:1058E0009A8389838091750490917604A0917704BE
:1058F000B09178048B839C83AD83BE83CE010196E7
:105900000E94640480E591E09F938F9386E591E087
:105910009F938F9390E8E92E92E0F92EFF92EF92F9
:1059200022EEC22E22E0D22EDF92CF920E941836B3
:1059300085E892E09F938F93DF92CF92FF92EF9250
:1059400001EF12E01F930F930E9418368AE392E052
:105950009F938F93DF92CF92FF92EF928CEC92E025
:105960009F938F930E9418368CE892E09F938F93B9
:10597000DF92CF92FF92EF9288EB92E09F938F930A
:105980000E9418364DB75EB7405E5F4F0FB6F89471
:105990005EBF0FBE4DBF6DED71E0CE0107960E9458
:1059A0008515F80101900020E9F78F01025F124090
:1059B0006B857C856C5F7F4F600F711F80915F04EA
:1059C000909160040E9412359093600480935F046C
:1059D00090935304809352041092550410925404EF
:1059E000A80161EF72E083EF93E00E94D61670E0A9
:1059F00060E083EF93E00E94C01680915404909180
:105A0000550490936404809363048CE2809365044E
:105A1000CE0107960E944825609154047091550468
:105A200070936204609361048091630490916404B4
:105A30009C01225031093093550420935404681B73
:105A4000790B83EF93E00E94C016109253041092DA
:105A5000520410926404109263044BE557E062E430
:105A600071E083EF93E00E949A24892B39F464E675
:105A700070E080E090E00E94CD01EFCF80E097E2FF
:105A80009093020480930104CDB6DEB6ECECF2E014
:105A900001900020E9F7AF014D5C52407A019A0174
:105AA0002B5F3F4F80915004909151040196909349
:105AB000510480935004892B31F481E090E090935D
:105AC000510480935004C7010A96EDB7FEB7E81B56
:105AD000F90B0FB6F894FEBF0FBEEDBF0DB71EB7A2
